:100000000EC01DC01CC01BC01AC019C018C017C02C
:1000100016C015C014C013C07CC011C08EC01124FE
:100020001FBECFE5D2E0DEBFCDBF20E0A0E6B0E04E
:1000300001C01D92A436B207E1F767D0A1C0E0CF9E
:1000400027E026B9379A27B1287F87709927822B16
:1000500087B9369A3699FECF84B195B1379808950D
:10006000F8948091620090916300892B81F483E081
:1000700090E0E6DF8A38924030F5B09B24C081E002
:1000800090E09093630080936200C19A1CC08091BD
:1000900062009091630001969093630080936200E8
:1000A0008091620090916300893791050CF0C198AE
:1000B00080916200909163008739910524F010923D
:1000C0006300109262007894089514BE88E981BD9F
:1000D00084E681BDA8950895F894F7DFB99A7894DD
:1000E000089585B7877E806185BF80B58F6080BDAC
:1000F000ECDF85B7806285BF7894889585B78F7D62
:1001000085BF80B5807F80BD0895E6DFA9DFE9DF88
:10011000FDCF1F920F920FB60F9211248F930FB63F
:10012000F894A89581B5886181BD11BC0FBE8F91EF
:100130000F900FBE0F901F9018951F920F920FB641
:100140000F9211248F9380916100813069F482E0D5
:1001500080936100809160008795882787958F67DD
:100160008FB98EE48EB906C0C19AB99A1DB8769A35
:10017000109261008F910F900FBE0F901F901895F5
:04018000F894FFCF21
:00000001FF
