:100000000EC01DC01CC01BC01AC019C018C017C02C
:1000100016C015C014C013C075C011C010C0112483
:100020001FBECFE5D2E0DEBFCDBF20E0A0E6B0E04E
:1000300001C01D92A236B207E1F760D077C0E0CFD1
:1000400027E026B9379A27B1287F87709927822B16
:1000500087B9369A3699FECF84B195B1379808950D
:10006000F8948091600090916100892B81F483E085
:1000700090E0E6DF8A389240F8F4B09B1DC081E042
:1000800090E09093610080936000C19A15C08091C8
:1000900060009091610001969093610080936000F0
:1000A0008091600090916100893791052CF0109249
:1000B000610010926000C1987894089514BE88E998
:1000C00081BD81E681BDA8950895F894F7DFB99ABE
:1000D0007894089585B7877E806185BF80B58F60ED
:1000E00080BDECDF85B7806285BF7894889585B741
:1000F0008F7D85BF80B5807F80BD0895E6DFB0DF4E
:10010000E9DFFDCF1F920F920FB60F9211248F934C
:100110000FB6F894A89581B5886181BD11BC0FBE5A
:100120008F910F900FBE0F901F901895F894FFCFEE
:00000001FF
