:100000000EC015C014C013C012C011C010C00FC064
:100010000EC00DC00CC00BC00AC009C008C011241E
:100020001FBECFE5D2E0DEBFCDBF07D02DC0E8CFE9
:1000300088E087B987E086B90895CF93DF9300D031
:100040001F92CDB7DEB7B99AF3DF369A3699FECF55
:1000500084B1898325B18981082E000C990B922BDC
:100060009B838A838A819B818130924058F0C19A18
:100070008FE799EA23E0815090402040E1F700C0EB
:0C0080000000E3CFC198E1CFF894FFCF5F
:00000001FF
