:1000000028C04CC08CC24AC049C03FC247C046C08D
:1000100045C044C043C042C0FCC240C03FC0000015
:10002000000037000000000038000000000036002B
:10003000020202020202020202020102040810206D
:100040002004100801020000040000000000400429
:10005000A90411241FBECFE5D2E0DEBFCDBF10E062
:10006000A0E6B0E0E2E2FAE002C005900D92A43909
:10007000B107D9F721E0A4E9B0E001C01D92A23098
:10008000B207E1F710E0C8E2D0E003C02197FE011B
:10009000B2D4C732D107D1F7D0D2B7C4B1CFCF9243
:1000A000DF92EF92FF920F931F93CF93DF936C0138
:1000B0007A018B01C0E0D0E0CE15DF0589F0D801D0
:1000C0006D918D01D601ED91FC910190F081E02DB3
:1000D000C6010995892B11F47E0102C02196ECCF4F
:1000E000C701DF91CF911F910F91FF90EF90DF90AB
:1000F000CF900895823081F018F4813051F0089546
:10010000833019F0843009F008958CB58F7D8CBD53
:1001100008958AB58F7702C08AB58F7D8ABD08950C
:100120001F93CF93DF93282F30E0F901EC5BFF4F53
:100130008491F901E65CFF4FD491F901E05DFF4F36
:10014000C491CC23C1F0162F8111D4DFEC2FF0E045
:10015000EE0FFF1FEC5DFF4FA591B4918FB7F894A0
:10016000111105C09C91ED2FE095E92302C0EC919F
:10017000ED2BEC938FBFDF91CF911F910895CF931B
:10018000DF9390E0FC01E65CFF4F2491FC01E05D11
:10019000FF4F8491882361F190E0880F991FFC0143
:1001A000E25EFF4FC591D491FC01EC5DFF4FA5913C
:1001B000B491611109C09FB7F8948881209582237A
:1001C0008883EC912E230BC0623061F49FB7F894C2
:1001D0003881822F809583238883EC912E2B2C935A
:1001E0009FBF06C08FB7F894E8812E2B28838FBF5E
:1001F000DF91CF9108952091D6003091D700281734
:10020000390771F49091D4008091D500981741F08E
:10021000E091D400F0E0EC56FF4F808190E008952B
:100220008FEF9FEF089508951F93CF93DF93DC0125
:100230005C962D913C915D972115310539F481E053
:1002400090E013969C938E9312973DC05196ED913A
:10025000FC91529750969C915097892F80951FB78B
:100260005E964C915E9741FB772770F941FD609552
:10027000F8944081772311F0492B01C04823408333
:10028000E9012197F1F748E0508160FF02C0592B46
:1002900001C058235083E9012197F1F76695415039
:1002A00099F7772321F090818923808303C080818F
:1002B000982B90831FBF5C968D919C915D970197C1
:1002C000F1F721E030E0C901DF91CF911F9108954E
:1002D0002091D6003091D7002817390769F4809112
:1002E000D5002091D40090E0805C9F4F821B910943
:1002F00060E470E037D3089580E090E008952091A5
:10030000D6003091D70028173907B9F49091D4005E
:100310008091D500981789F0E091D400F0E0EC5678
:10032000FF4F80812091D40030E02F5F3F4F2F732B
:1003300033272093D40090E008958FEF9FEF089526
:10034000E091D600F091D700E817F90769F4A38986
:10035000B4899C918589809589238C931092D700CC
:100360001092D60081E0089580E00895009761F032
:10037000FC0101900020E9F73197AF01481B590BB0
:10038000BC0183EE90E08BCE80E090E008958F92E8
:100390009F92AF92BF92CF92DF92EF92FF920F9314
:1003A0001F93CF93DF93CDB7DEB7A1970FB6F89425
:1003B000DEBF0FBECDBF6C01990FEE08FF08F7FE40
:1003C0002FC0E091E300F091E4000190F081E02D76
:1003D0006DE283EE90E009958C0122273327A90175
:1003E0002C193D094E095F0919A2CE0181967C01A5
:1003F0009AE0892E912CA12CB12CCA01B901A5013A
:100400009401C3D2605DF70162937F01211531052C
:100410004105510591F7CF01A9DF080F191F1CC035
:10042000A701960119A28E010F5D1F4F8AE0C82E09
:10043000D12CE12CF12CCA01B901A7019601A5D25A
:10044000605DF80162938F01211531054105510569
:1004500091F7CF018BDF8C0180E790E087DF800F81
:10046000911FA1960FB6F894DEBF0FBECDBFDF91EE
:10047000CF911F910F91FF90EF90DF90CF90BF90A1
:10048000AF909F908F900895BCD21F920F920FB69D
:100490000F9211242F933F938F939F93AF93BF930A
:1004A0008091DF009091E000A091E100B091E20026
:1004B0003091DE0020E3230F2D3720F44096A11D5C
:1004C000B11D05C023EB230F4196A11DB11D209343
:1004D000DE008093DF009093E000A093E100B093F2
:1004E000E2008091DA009091DB00A091DC00B091F5
:1004F000DD000196A11DB11D8093DA009093DB0011
:10050000A093DC00B093DD00BF91AF919F918F91DC
:100510003F912F910F900FBE0F901F9018951F9233
:100520000F920FB60F9211242F933F934F935F9327
:100530006F937F938F939F93AF93BF93EF93FF93AB
:10054000E091D600F091D700309709F451C0968D14
:10055000A685B785858591FF04C09C91892329F4E0
:1005600047C09C91892309F043C0A389B4899C9119
:100570008589809589238C93868997890197F1F7DE
:10058000608D718DA685B785558538E020E0CB015B
:100590000197F1F7822F90E095958795282F4C9140
:1005A000452309F02068315091F7868D81FD209513
:1005B0008091D50090E001968F7399273091D400F7
:1005C000381749F0A091D500B0E0AC56BF4F2C933E
:1005D0008093D50003C0868D8160868F828D938D38
:1005E0000197F1F7A389B4899C918589892B8C9314
:1005F000FF91EF91BF91AF919F918F917F916F91FB
:100600005F914F913F912F910F900FBE0F901F90D0
:1006100018951F920F920FB60F9211248F930FB659
:10062000F894A89581B5886181BD11BC0FBE8F91EA
:100630000F900FBE0F901F90189578948AB5826026
:100640008ABD8AB581608ABD83B7826083BF83B764
:10065000816083BF89B7826089BF80B7826080BFB5
:100660003298319A309A379A8CB580648CBD61E0AB
:1006700081E085DD60E083E082DD60E080E07FDDB9
:100680001092FE001092FD001092FC001092FB00F0
:100690001092FA001092F90087E190E09093000127
:1006A0008093FF004091EF00453010F521E020934A
:1006B000F9001092FA0065E170E07093FC0060931D
:1006C000FB0067E070E07093FE006093FD003BB7B5
:1006D00030623BBF65E370E07093F7006093F60013
:1006E00001C0220F4A95EAF72093F8000197F1F72D
:1006F0008091FD009091FE00892B19F18091D60028
:100700009091D70020E0833E9207D9F0009709F03E
:1007100017DE809101018E7F809301011092D50038
:100720001092D40083EE90E09093D7008093D6008F
:10073000E091F600F091F70090818091F800892B0C
:10074000808303E094E4E92E90E0F92E2AE3C22EA0
:1007500020E0D22E30E3A32E30E0B32E48E9542E11
:1007600050E0852E50E0952E66246394712C17E49A
:10077000F8948091D8009091D900892B19F507B988
:10078000369A3699FECFC4B185B1D0E0D82BCA389D
:1007900082E0D8070CF03EC0F7018491F601449046
:1007A000F50134903320B1F18111A4DCE32DF0E0A8
:1007B000EE0FFF1FE65DFF4FA591B4918C9148228B
:1007C00049F145C083E790E0D1DD8091D800909158
:1007D000D900DDDD8091D8009091D90001969093E9
:1007E000D9008093D8008091D8009091D900CD97FE
:1007F0000CF43AC08091D8009091D9008B349105C7
:100800009CF560E081E08CDC89E890E0AFDD80E77A
:1008100090E0ACDD789485B7877E806185BF80B538
:100820008F6080BD14BE51BC11BDA89585B7806294
:1008300085BF7894889585B78F7D85BF80B5807F8B
:1008400080BD8114910409F493CFDADB90CF8EE759
:1008500090E08CDDCE019BDD7092D9006092D800D3
:1008600061E081E05DDCD6CF8091D8009091D90025
:100870008C3491057CF21092D9001092D800CACF26
:100880001092E6001092E50088EE93E0A0E0B0E060
:100890008093E7009093E800A093E900B093EA000A
:1008A00084E690E09093E4008093E3001092FA00D5
:1008B0001092F9001092FC001092FB001092FE00C2
:1008C0001092FD00109200011092FF006091010152
:1008D0006E7F6D7F609301016695617081E068278E
:1008E00082E01EDC61E082E04ADCECE3F0E0E491CF
:1008F000E093F300E2E3F0E0E491F0E0EE0FFF1F9D
:10090000EC5DFF4F859194919093F5008093F400F6
:1009100060E084E034DC8091010181FD03C061E08E
:1009200084E0FEDB84E08093EF00EEE3F0E0E4910E
:10093000E093F000E4E3F0E0E491F0E0EE0FFF1F5D
:10094000E65DFF4F859194919093F2008093F100C2
:10095000089584E690E09093E4008093E30083EEB2
:1009600090E0EECC97FB072E16F4009406D077FDAE
:1009700008D02DD007FC05D03EF4909581959F4F6F
:100980000895709561957F4F0895A1E21A2EAA1BD4
:10099000BB1BFD010DC0AA1FBB1FEE1FFF1FA2172F
:1009A000B307E407F50720F0A21BB30BE40BF50B2C
:1009B000661F771F881F991F1A9469F760957095B5
:1009C000809590959B01AC01BD01CF010895AA1BB4
:1009D000BB1B51E107C0AA1FBB1FA617B70710F02A
:1009E000A61BB70B881F991F5A95A9F7809590955C
:1009F000BC01CD010895EE0FFF1F0590F491E02D8D
:100A0000099481E090E0F89400C010E0C8E2D0E0E2
:100A100003C0FE01F0DF2196C932D107D1F7F89467
:020A2000FFCF06
:100A22000000000014014F0068017F01FB00130168
:100A32000D0A006C65642073746174653D006D6F0E
:100A420076656D656E742120006F6666206C69673D
:040A520068740000C4
:00000001FF
