:1000000028C04CC08CC24AC049C03FC247C046C08D
:1000100045C044C043C042C0FCC240C03FC0000015
:10002000000037000000000038000000000036002B
:10003000020202020202020202020102040810206D
:1000400020041008010200000400000000004E041B
:10005000B70411241FBECFE5D2E0DEBFCDBF10E054
:10006000A0E6B0E0EEE3FAE002C005900D92A83AF7
:10007000B107D9F721E0A8EAB0E001C01D92A7318D
:10008000B207E1F710E0C8E2D0E003C02197FE011B
:10009000C0D4C732D107D1F7D0D2C5C4B1CFCF9227
:1000A000DF92EF92FF920F931F93CF93DF936C0138
:1000B0007A018B01C0E0D0E0CE15DF0589F0D801D0
:1000C0006D918D01D601ED91FC910190F081E02DB3
:1000D000C6010995892B11F47E0102C02196ECCF4F
:1000E000C701DF91CF911F910F91FF90EF90DF90AB
:1000F000CF900895823081F018F4813051F0089546
:10010000833019F0843009F008958CB58F7D8CBD53
:1001100008958AB58F7702C08AB58F7D8ABD08950C
:100120001F93CF93DF93282F30E0F901EC5BFF4F53
:100130008491F901E65CFF4FD491F901E05DFF4F36
:10014000C491CC23C1F0162F8111D4DFEC2FF0E045
:10015000EE0FFF1FEC5DFF4FA591B4918FB7F894A0
:10016000111105C09C91ED2FE095E92302C0EC919F
:10017000ED2BEC938FBFDF91CF911F910895CF931B
:10018000DF9390E0FC01E65CFF4F2491FC01E05D11
:10019000FF4F8491882361F190E0880F991FFC0143
:1001A000E25EFF4FC591D491FC01EC5DFF4FA5913C
:1001B000B491611109C09FB7F8948881209582237A
:1001C0008883EC912E230BC0623061F49FB7F894C2
:1001D0003881822F809583238883EC912E2B2C935A
:1001E0009FBF06C08FB7F894E8812E2B28838FBF5E
:1001F000DF91CF9108952091EA003091EB0028170C
:10020000390771F49091E8008091E900981741F066
:10021000E091E800F0E0E855FF4F808190E008951C
:100220008FEF9FEF089508951F93CF93DF93DC0125
:100230005C962D913C915D972115310539F481E053
:1002400090E013969C938E9312973DC05196ED913A
:10025000FC91529750969C915097892F80951FB78B
:100260005E964C915E9741FB772770F941FD609552
:10027000F8944081772311F0492B01C04823408333
:10028000E9012197F1F748E0508160FF02C0592B46
:1002900001C058235083E9012197F1F76695415039
:1002A00099F7772321F090818923808303C080818F
:1002B000982B90831FBF5C968D919C915D970197C1
:1002C000F1F721E030E0C901DF91CF911F9108954E
:1002D0002091EA003091EB002817390769F48091EA
:1002E000E9002091E80090E0805C9F4F821B91091B
:1002F00060E470E045D3089580E090E00895209197
:10030000EA003091EB0028173907B9F49091E80022
:100310008091E900981789F0E091E800F0E0E85555
:10032000FF4F80812091E80030E02F5F3F4F2F7317
:1003300033272093E80090E008958FEF9FEF089512
:10034000E091EA00F091EB00E817F90769F4A3895E
:10035000B4899C918589809589238C931092EB00B8
:100360001092EA0081E0089580E00895009761F01E
:10037000FC0101900020E9F73197AF01481B590BB0
:10038000BC0188EF90E08BCE80E090E008958F92E2
:100390009F92AF92BF92CF92DF92EF92FF920F9314
:1003A0001F93CF93DF93CDB7DEB7A1970FB6F89425
:1003B000DEBF0FBECDBF6C01990FEE08FF08F7FE40
:1003C0002FC0E091F800F091F9000190F081E02D4C
:1003D0006DE288EF90E009958C0122273327A9016F
:1003E0002C193D094E095F0919A2CE0181967C01A5
:1003F0009AE0892E912CA12CB12CCA01B901A5013A
:100400009401D1D2605DF70162937F01211531051E
:100410004105510591F7CF01A9DF080F191F1CC035
:10042000A701960119A28E010F5D1F4F8AE0C82E09
:10043000D12CE12CF12CCA01B901A7019601B3D24C
:10044000605DF80162938F01211531054105510569
:1004500091F7CF018BDF8C0180E790E087DF800F81
:10046000911FA1960FB6F894DEBF0FBECDBFDF91EE
:10047000CF911F910F91FF90EF90DF90CF90BF90A1
:10048000AF909F908F900895CAD21F920F920FB68F
:100490000F9211242F933F938F939F93AF93BF930A
:1004A0008091F4009091F500A091F600B091F700D2
:1004B0003091F30020E3230F2D3720F44096A11D47
:1004C000B11D05C023EB230F4196A11DB11D209343
:1004D000F3008093F4009093F500A093F600B0939E
:1004E000F7008091EF009091F000A091F100B091A1
:1004F000F2000196A11DB11D8093EF009093F000D2
:10050000A093F100B093F200BF91AF919F918F91B2
:100510003F912F910F900FBE0F901F9018951F9233
:100520000F920FB60F9211242F933F934F935F9327
:100530006F937F938F939F93AF93BF93EF93FF93AB
:10054000E091EA00F091EB00309709F451C0968DEC
:10055000A685B785858591FF04C09C91892329F4E0
:1005600047C09C91892309F043C0A389B4899C9119
:100570008589809589238C93868997890197F1F7DE
:10058000608D718DA685B785558538E020E0CB015B
:100590000197F1F7822F90E095958795282F4C9140
:1005A000452309F02068315091F7868D81FD209513
:1005B0008091E90090E001968F7399273091E800CF
:1005C000381749F0A091E900B0E0A855BF4F2C932F
:1005D0008093E90003C0868D8160868F828D938D24
:1005E0000197F1F7A389B4899C918589892B8C9314
:1005F000FF91EF91BF91AF919F918F917F916F91FB
:100600005F914F913F912F910F900FBE0F901F90D0
:1006100018951F920F920FB60F9211248F930FB659
:10062000F894A89581B5886181BD11BC0FBE8F91EA
:100630000F900FBE0F901F90189578948AB5826026
:100640008ABD8AB581608ABD83B7826083BF83B764
:10065000816083BF89B7826089BF80B7826080BFB5
:100660003298319A309A379A8CB580648CBD10924A
:10067000EC0061E081E083DD60E083E080DD60E04C
:1006800080E07DDD10921301109212011092110191
:100690001092100110920F0110920E0187E190E06C
:1006A000909315018093140140910401453010F599
:1006B00021E020930E0110920F0165E170E070932C
:1006C00011016093100167E070E070931301609373
:1006D00012013BB730623BBF65E370E070930C01E1
:1006E00060930B0101C0220F4A95EAF720930D0198
:1006F0000197F1F78091120190911301892B19F163
:100700008091EA009091EB0020E0883F9207D9F0B9
:10071000009709F015DE809116018E7F80931601F7
:100720001092E9001092E80088EF90E09093EB00BF
:100730008093EA00E0910B01F0910C01908180918F
:100740000D01892B808304E410E09AE3E92E90E008
:10075000F92E20E3C22E20E0D22E38E9932E47E472
:10076000842E50E0A52E50E0B52EF8946090ED0058
:100770007090EE006114710409F045C08091EC00A6
:100780008295807F836087B9369A3699FECFC4B14F
:1007900085B1D0E0D82B83E790E0E8DDCE01F7DD2E
:1007A000CA3882E0D8070CF05CC0F8018491F701E8
:1007B0004490F6015490552099F081119BDC252D31
:1007C00030E0220F331F265D3F4FF901A591B49110
:1007D0008C91482291E080E009F490E0692E782E17
:1007E000C301D5DDF1E06F167104D9F581E890E021
:1007F000BDDDCE01CCDD7092EE006092ED0061E0D7
:1008000081E08EDC2EC08CE890E0B0DD8091ED00C0
:100810009091EE00BCDD8091ED009091EE0001968C
:100820009093EE008093ED008091ED009091EE00AA
:10083000CC9731F460E081E073DC87E990E00DC093
:100840008091ED009091EE008B34910551F410925F
:10085000EE001092ED0081EA90E088DD80E790E004
:1008600085DD789485B7877E806185BF80B58F6090
:1008700080BD14BE91BC81BCA89585B7806285BF40
:100880007894889585B78F7D85BF80B5807F80BD42
:10089000A114B10409F469CFB3DB67CF1092FB0058
:1008A0001092FA0088EE93E0A0E0B0E08093FC00A4
:1008B0009093FD00A093FE00B093FF0084E690E0CB
:1008C0009093F9008093F80010920F0110920E019E
:1008D0001092110110921001109213011092120146
:1008E0001092150110921401609116016E7F6D7FB8
:1008F000609316016695617081E0682782E010DCE4
:1009000061E082E03CDCECE3F0E0E491E09308019C
:10091000E2E3F0E0E491F0E0EE0FFF1FEC5DFF4F4B
:100920008591949190930A018093090160E084E09D
:1009300026DC8091160181FD03C061E084E0F0DBDC
:1009400084E080930401EEE3F0E0E491E09305019C
:10095000E4E3F0E0E491F0E0EE0FFF1FE65DFF4F0F
:10096000859194919093070180930601089584E600
:1009700090E09093F9008093F80088EF90E0E0CC4D
:1009800097FB072E16F4009406D077FD08D02DD0E3
:1009900007FC05D03EF4909581959F4F0895709582
:1009A00061957F4F0895A1E21A2EAA1BBB1BFD0182
:1009B0000DC0AA1FBB1FEE1FFF1FA217B307E4073E
:1009C000F50720F0A21BB30BE40BF50B661F771F96
:1009D000881F991F1A9469F7609570958095909576
:1009E0009B01AC01BD01CF010895AA1BBB1B51E1C6
:1009F00007C0AA1FBB1FA617B70710F0A61BB70B8F
:100A0000881F991F5A95A9F780959095BC01CD0133
:100A10000895EE0FFF1F0590F491E02D099481E0F9
:100A200090E0F89400C010E0C8E2D0E003C0FE01FE
:0E0A3000F0DF2196C932D107D1F7F894FFCF3D
:100A3E000000000014014F0068017F01FB0013014C
:100A4E000D0A006C696768742076616C7565203DCF
:100A5E00006D6F76656D656E742120006C65642087
:100A6E0073746174653D006F6666206C69676874A7
:080A7E0000726573657400004D
:00000001FF
